:020000040000FA
:100000000C9462000C948A000C948A000C948A0070
:100010000C948A000C948A000C948A000C948A0038
:100020000C948A000C948A000C948A000C948A0028
:100030000C948A000C948A000C948A000C948A0018
:100040000C9482060C948A000C9450060C942A0698
:100050000C948A000C948A000C948A000C948A00F8
:100060000C94CC060C948A000000000024002700A9
:100070002A0000000000250028002B0000000000DE
:1000800023002600290004040404040404040202DA
:100090000202020203030303030301020408102007
:1000A0004080010204081020010204081020000012
:1000B0000008000201000003040700000000000027
:1000C0000000EB0711241FBECFEFD8E0DEBFCDBF8D
:1000D00011E0A0E0B1E0EEECF6E102C005900D9277
:1000E000A237B107D9F722E0A2E7B1E001C01D9223
:1000F000A53FB207E1F710E0C2E6D0E004C02197C7
:10010000FE010E945F0BC136D107C9F70E94330878
:100110000C94650B0C940000E0E4F2E0A089B18936
:1001200082E08C93A485B5851C92A685B7858FEC5B
:100130008C93108EA489B58986E08C93A289B389AB
:100140008C9180618C93A289B3898C9188608C9307
:10015000A289B3898C9180688C930288F389E02D01
:1001600080818F7D8083089508950895AF92BF9216
:10017000CF92DF92EF92FF920F931F93CF93DF9373
:100180006C017B018B01040F151FEB015E01AE18A2
:10019000BF08C017D10759F06991D601ED91FC91C4
:1001A0000190F081E02DC6010995892B79F7C501F1
:1001B000DF91CF911F910F91FF90EF90DF90CF9043
:1001C000BF90AF900895FC01538D448D252F30E0F2
:1001D000842F90E0821B930B541710F0CF96089554
:1001E00001970895FC01918D828D981761F0A28D81
:1001F000AE0FBF2FB11D5D968C91928D9F5F9F7347
:10020000928F90E008958FEF9FEF0895FC01918DFC
:10021000828D981731F0828DE80FF11D858D90E069
:1002200008958FEF9FEF0895FC01918D228D892F06
:1002300090E0805C9F4F821B91098F7399270895EE
:1002400080E492E00E94140121E0892B09F420E06F
:10025000822F089580E090E0892B29F00E942001F0
:1002600081110C9400000895FC01A48DA80FB92FF2
:10027000B11DA35ABF4F2C91848D90E001968F73CE
:100280009927848FA689B7892C93A089B1898C91ED
:10029000837080648C93938D848D981306C002883C
:1002A000F389E02D80818F7D80830895EF92FF9206
:1002B0000F931F93CF93DF93EC0181E0888F9B8D89
:1002C0008C8D98131AC0E889F989808185FF15C043
:1002D0009FB7F894EE89FF896083E889F989808166
:1002E0008370806480839FBF81E090E0DF91CF9135
:1002F0001F910F91FF90EF900895F62E0B8D10E057
:100300000F5F1F4F0F731127E02E8C8D8E110CC0C5
:100310000FB607FCFACFE889F989808185FFF5CF10
:10032000CE010E943401F1CFEB8DEC0FFD2FF11DBA
:10033000E35AFF4FF0829FB7F8940B8FEA89FB894D
:1003400080818062CFCFCF93DF93EC01888D8823AB
:10035000B9F0AA89BB89E889F9898C9185FD03C028
:10036000808186FD0DC00FB607FCF7CF8C9185FF0D
:10037000F2CF808185FFEDCFCE010E943401E9CF1D
:10038000DF91CF910895833081F028F4813099F086
:100390008230A9F008958730A9F08830C9F0843000
:1003A000B1F4809180008F7D03C0809180008F77B1
:1003B00080938000089584B58F7784BD089584B5B7
:1003C0008F7DFBCF8091B0008F778093B000089530
:1003D0008091B0008F7DF9CFCF93DF93282F30E04D
:1003E000F901E255FF4F8491F901E656FF4FD49190
:1003F000F901EA57FF4FC491CC23A1F081110E946B
:10040000C301EC2FF0E0EE0FFF1FE458FF4FA59162
:10041000B491EC91ED2381E090E009F480E0DF916C
:10042000CF91089580E090E0FACF1F93CF93DF93B0
:10043000282F30E0F901E255FF4F8491F901E6568B
:10044000FF4FD491F901EA57FF4FC491CC23A9F093
:10045000162F81110E94C301EC2FF0E0EE0FFF1F59
:10046000EE58FF4FA591B4918FB7F894EC9111110C
:1004700008C0D095DE23DC938FBFDF91CF911F9111
:100480000895DE2BF8CFCF93DF9390E0FC01E65682
:10049000FF4F24918A579F4FFC0184918823D1F00C
:1004A00090E0880F991FFC01E859FF4FA591B49186
:1004B000FC01EE58FF4FC591D49161110EC09FB75A
:1004C000F8948C91E22FE0958E238C932881E2237F
:1004D000E8839FBFDF91CF9108958FB7F894EC9197
:1004E000E22BEC938FBFF6CF3FB7F89480912902AF
:1004F00090912A02A0912B02B0912C0226B5A89BC4
:1005000005C02F3F19F00196A11DB11D3FBFBA2FA5
:10051000A92F982F8827BC01CD01620F711D811D65
:10052000911D42E0660F771F881F991F4A95D1F7EA
:1005300008958F929F92AF92BF92CF92DF92EF92E7
:10054000FF924B015C010E9474026B017C010E94CE
:1005500074026C197D098E099F09683E73408105FC
:100560009105A8F321E0821A9108A108B10888EE4C
:10057000C80E83E0D81EE11CF11C81149104A10473
:10058000B10429F7FF90EF90DF90CF90BF90AF902C
:100590009F908F9008952091DA01260F3327331F03
:1005A00021323105ECF42091FE01FC0190E080E065
:1005B000243069F082E00895A091DA012191AC0124
:1005C00046545E4FA40FB52FB11D2C93019686178C
:1005D00098F38091DA01680F6093DA0180E0089562
:1005E00081E008951092FE0181E080930002109254
:1005F000FF0161E082E10E94150261E083E10E9457
:100600001502E9EBF0E080818E7F808380818D7F11
:10061000808388E48093B80085E48093BC000895CB
:10062000CF93DF9391E09093B9018823B9F0C09103
:10063000B800D091BA008091BC008A7B8093BC0046
:1006400060E082E10E94150260E083E10E941502F1
:100650000E94F202D093BA00C093B800DF91CF910C
:1006600008950895E091340280913302E81730F440
:10067000F0E0EC56FE4F808190E008958FEF9FEF01
:10068000089590913402809133022FEF3FEF981735
:1006900048F4E92FF0E0EC56FE4F208130E09F5FF8
:1006A00090933402C90108958091330290913402ED
:1006B000891B990B0895CF92DF92EF92FF920F93CF
:1006C0001F93CF93DF937C01CB018A01209193018B
:1006D000222389F0EB016B01C40ED51ECC15DD057C
:1006E00069F06991D701ED91FC910190F081E02DC5
:1006F000C7010995F3CF642F0E94CB02C801DF9197
:10070000CF911F910F91FF90EF90DF90CF900895C0
:10071000CF93DF931F92CDB7DEB76983209193010A
:100720002223F9F020913102203258F021E030E00C
:10073000FC013383228390E080E00F90DF91CF9122
:10074000089580913202E82FF0E0ED58FE4F998134
:1007500090838F5F809332028093310281E090E03A
:10076000ECCF61E0CE0101960E94CB02F7CFCF9291
:10077000DF92EF92FF920F931F93CF93DF93D62FC9
:10078000672FFC01C48181E080939301C0937201C3
:1007900010923202109231028DED92E00E94880395
:1007A0006D2F8DED92E00E948803D0913102D132FD
:1007B00008F092C00E9474026B017C018091FE01DE
:1007C000811165C082E08093FE0181E08093000288
:1007D0008FEF8093FD0110922202D0932102A3E7B4
:1007E000B1E0E1E0F2E080E0D81385C0109223028E
:1007F00080912302CC0FC82BC09323028091FF016C
:10080000813009F07CC01092FF010E9474026B01DC
:100810007C01809123028093BB008091B50190916F
:10082000B601A091B701B091B801892B8A2B8B2B0F
:1008300099F00E9474020091B5011091B6012091C7
:10084000B7013091B8016C197D098E099F0906170F
:10085000170728073907E0F18091BC0083FDD9CF45
:1008600085EC8093BC000E9474026B017C01809136
:10087000FE01823009F445C08091FD018F3F61F196
:100880008091FD01803241F18091FD0125C0809170
:10089000B5019091B601A091B701B091B801892B33
:1008A0008A2B8B2B09F48ACF0E9474020091B50128
:1008B0001091B6012091B7013091B8016C197D09F2
:1008C0008E099F09061717072807390708F076CF02
:1008D0008091B4010E9410031092320210923102F2
:1008E00010929301DF91CF911F910F91FF90EF90A4
:1008F000DF90CF9008959D9191938F5F75CF85EE96
:10090000B0CF8091B5019091B601A091B701B0919F
:10091000B801892B8A2B8B2B09F4A9CF0E94740272
:100920000091B5011091B6012091B7013091B80145
:100930006C197D098E099F090617170728073907C3
:1009400008F095CFC5CF60E870E089EE92E00C9496
:10095000B70361E070E089EE92E00E94B7038BE399
:100960009FE10197F1F78091F20281110C94A304A9
:10097000089570E070640E94B70381E090E00895EC
:10098000089590E080E00895EF92FF920F931F93F7
:10099000CF93DF937C01D0E0C0E000E110E0CE1502
:1009A000DF05A4F564E670E080E090E00E94990223
:1009B00061E088E00E94150260E08BE00E94150271
:1009C00061E089E00E94150260E088E00E94150263
:1009D00061E08AE00E94150260E089E00E94150251
:1009E00061E08BE00E94150260E08AE00E9415023F
:1009F00080913E0290913F020196B8010E94370B10
:100A000090933F0280933E022196C9CFDF91CF9110
:100A10001F910F91FF90EF900895FB01019000202E
:100A2000E9F73197AF01461B570BDC01ED91FC91C3
:100A30000280F381E02D0994CF93DF93BC0180E421
:100A400092E00E940D05EC0164E371E080E492E025
:100A50000E940D058C0F9D1FDF91CF9108958F92FD
:100A60009F92AF92BF92CF92DF92EF92FF920F933D
:100A70001F93CF93DF93CDB7DEB7A1970FB6F8944E
:100A8000DEBF0FBECDBF6C01990FEE08FF08F7FE69
:100A90004BC06DE280E492E00E9456018C01222757
:100AA0003327A9012C193D094E095F0919A2CE016E
:100AB00081967C019AE0892E912CA12CB12CCA013F
:100AC000B901A50194010E94060B605DF7016293D4
:100AD0007F01211531054105510589F790E080E03E
:100AE000309729F0BF0180E492E00E940D05080FC5
:100AF000191F64E371E080E492E00E940D05800F0D
:100B0000911FA1960FB6F894DEBF0FBECDBFDF9147
:100B1000CF911F910F91FF90EF90DF90CF90BF90FA
:100B2000AF909F908F900895A701960119A28E0112
:100B30000F5D1F4F8AE0C82ED12CE12CF12CCA0189
:100B4000B901A70196010E94060B605DF80162934E
:100B50008F01211531054105510589F7309739F08D
:100B6000BF0180E492E00E940D058C01C2CF10E02D
:100B700000E0BFCF85ED8093BC008091B5019091DE
:100B8000B601A091B701B091B8010796A11DB11DA2
:100B900023E0B695A795979587952A95D1F720914B
:100BA000BC0024FD03C01092FE0108954091B501E0
:100BB0005091B6016091B7017091B801452B462B59
:100BC000472B69F30097A105B10541F025E32A956C
:100BD000F1F700000197A109B109E1CF8091B401BB
:100BE0000C941003FF920F931F93CF93DF93EC01AC
:100BF0008B01FB01F0800E94BE0AF81621F06F2DD8
:100C0000CE010E94C60AF801F1802196CE010E9411
:100C1000BE0AF81621F06F2DCE010E94C60AC80147
:100C2000DF91CF911F910F91FF9008950F931F9324
:100C3000CF93DF938C01EB010E94BE0A8883C80129
:100C400001960E94BE0A8983CE01DF91CF911F9148
:100C50000F9108951F920F920FB60F9211242F93A8
:100C60003F934F935F936F937F938F939F93AF9334
:100C7000BF93EF93FF9380E492E00E943401FF91D1
:100C8000EF91BF91AF919F918F917F916F915F9104
:100C90004F913F912F910F900FBE0F901F9018957D
:100CA0001F920F920FB60F9211242F938F939F9341
:100CB000EF93FF93E0915002F09151028081E09117
:100CC0005602F091570282FD1BC09081809159021B
:100CD0008F5F8F7320915A02821741F0E091590281
:100CE000F0E0E05CFD4F958F80935902FF91EF910A
:100CF0009F918F912F910F900FBE0F901F9018957D
:100D00008081F4CF1F920F920FB60F9211242F9370
:100D10003F938F939F93AF93BF93809125029091C0
:100D20002602A0912702B09128023091240223E0EC
:100D3000230F2D3758F50196A11DB11D20932402D4
:100D40008093250290932602A0932702B093280255
:100D50008091290290912A02A0912B02B0912C023D
:100D60000196A11DB11D8093290290932A02A093A0
:100D70002B02B0932C02BF91AF919F918F913F9125
:100D80002F910F900FBE0F901F90189526E8230FFC
:100D90000296A11DB11DD2CF1F920F920FB60F92D6
:100DA00011242F933F934F935F936F937F938F9370
:100DB0009F93AF93BF93EF93FF938091B900887F88
:100DC000803609F44AC0F0F5883209F4A7C018F556
:100DD000803109F49BC0B8F4882309F4F9C0883045
:100DE00009F494C0FF91EF91BF91AF919F918F91C2
:100DF0007F916F915F914F913F912F910F900FBE17
:100E00000F901F901895883109F488C0803251F7EF
:100E10008093FD0114C0803409F49DC040F48033F8
:100E2000B9F38833F9F68093FD0185ECB0C08035C5
:100E300009F485C0883509F496C0883499F60E9473
:100E4000BA05D0CF883909F48CC038F5883729F035
:100E500050F4883611F0803729F683E08093FE0144
:100E60001092FC0157C0883809F47BC0803919F012
:100E7000803809F0B7CF8091FC01803208F071C052
:100E8000E091FC0181E08E0F8093FC018091BB001A
:100E9000F0E0E452FE4F80833DC0803B39F0E0F447
:100EA000803A09F479C0883A09F09CCF84E08093B5
:100EB000FE011092DB011092DA01E0912F02F09115
:100EC000300209958091DA0181110FC081E0809391
:100ED000DA011092BA0109C0803C09F4A6CF883C1F
:100EE00009F4A3CF883B09F07DCFE091DB0181E0DD
:100EF0008E0F8093DB01F0E0E654FE4F80818093FB
:100F0000BB009091DB018091DA0129C0809123021E
:100F10008093BB0085EC8093BC0064CF909122024B
:100F200080912102981758F5E091220281E08E0FFE
:100F300080932202F0E0EF5FFD4F8081E9CFE091E6
:100F4000220281E08E0F809322028091BB00F0E0AC
:100F5000EF5FFD4F808390912202809121029817CC
:100F6000C8F285E8D8CFE091220281E08E0F80930D
:100F700022028091BB00F0E0EF5FFD4F8083809103
:100F8000000281115CCF81E08093FF0184EA8093AD
:100F9000BC001092FE0126CF85EC8093BC0010921D
:100FA000FE018091FC01803230F4E091FC01F0E020
:100FB000E452FE4F10826091FC0170E0E0912D023E
:100FC000F0912E028CED91E009951092FC010ACF70
:100FD0001092FD0134CFE0E4F2E01382128288EE39
:100FE00093E0A0E0B0E084839583A683B78328E0F4
:100FF00031E03183208325EC30E03587248724ECF1
:1010000030E03787268720EC30E0318B208B21ECD5
:1010100030E0338B228B22EC30E0358B248B26ECB6
:1010200030E0378B268B118E128E138E148EEDEDE1
:10103000F2E01382128284839583A683B7838AE1C8
:1010400091E091838083E9EEF2E0138212828CE2D8
:1010500091E09183808311868EE3848380E182878F
:1010600082E083870895CF93DF9300D0CDB7DEB7BA
:10107000789484B5826084BD84B5816084BD85B573
:10108000826085BD85B5816085BD80916E0081607F
:1010900080936E0010928100809181008260809325
:1010A0008100809181008160809381008091800027
:1010B0008160809380008091B10084608093B10052
:1010C0008091B00081608093B00080917A0084604C
:1010D00080937A0080917A00826080937A00809178
:1010E0007A00816080937A0080917A008068809392
:1010F0007A001092C10060E080E00E94430261E04B
:1011000081E00E94430261E082E00E94430261E0CC
:1011100088E00E94430261E089E00E94430261E0AE
:101120008AE00E94430261E08BE00E9443020E9439
:101130008C0065E372E088E49FE10E9416068091CE
:1011400035029091360289329940A1F089E299E006
:101150009A838983BE016F5F7F4F88E49FE10E947D
:10116000F2051A821982BE016F5F7F4F80E49FE112
:101170000E94F2056EE372E080E49FE10E94160691
:101180000E948C0080913E0290913F020E942F05A8
:1011900010923402109233021092320210923102F5
:1011A0000E94F20284EB90E09093300280932F0231
:1011B00085EB90E090932E0280932D0280E1809346
:1011C000EE028091F402823018F098E19093EE02E2
:1011D0008093F1028BE39DE00197F1F76091EE02BD
:1011E000606270E089EE92E00E94B7038BE496E4BF
:1011F0000197F1F76091EE02606270E089EE92E093
:101200000E94B70383E592E00197F1F76091EE0247
:10121000606270E089EE92E00E94B7036091EE0296
:10122000606270E089EE92E00E94B70384E08093F0
:10123000EF026CE070E089EE92E00E94B7030E943A
:10124000A90482E08093F00266E070E089EE92E00B
:101250000E94B70362E070E089EE92E00E94B7035B
:101260008BE39FE10197F1F70E94A30400E110E0F6
:1012700080EA482E512C612C712C90E0892E90E050
:10128000992E22E0A22EB12C332433946EE372E027
:1012900080E49FE10E94F20580913E0290913F021E
:1012A000B8010E94370B90933F0280933E02209139
:1012B0003C0230913D02232BB9F4009731F09801A4
:1012C000281B390BC9010E94C40480E00E94EC0174
:1012D0007C01019709F04BC087E391E00E941C0557
:1012E000F0923D02E0923C02E0903C02F0903D0220
:1012F00081E0E816F104D9F560E471E089EE92E04E
:101300000E940D058FE491E00E941C0510923B02A3
:1013100010923A020E94660AA30192010E94D40A26
:10132000DC01CB0180569F4FAF4FBF4F90933902E6
:10133000809338020E942F05C0903802D090390265
:10134000C6010E94C404C601B8010E94370B9093E5
:10135000390280933802877F0297029720F4F09237
:101360003B02E0923A02B0923D02A0923C02809190
:101370003C0290913D020297F1F580913702209155
:101380003A0230913B02232B09F441C0811126C05F
:101390003092370286E591E00E941C0561E081E011
:1013A0000E94150261E082E00E9415020E94A904D9
:1013B0000E94A30460E671E089EE92E00E940D05B0
:1013C00060ED77E080E090E00E94990260E081E0CB
:1013D0000E94150260E082E00E94150280E00E94F7
:1013E000EC01019741F410923D0210923C021092E0
:1013F00037020E94A9048114910409F447CF0E9486
:101400002001882309F442CF0E9400003FCF8111C0
:10141000E5CF3092370289E691E00E941C050E94D8
:10142000A9040E94A30469E671E089EE92E00E949B
:101430000D05D4CF8F929F92AF92BF92CF92DF9241
:10144000EF92FF92CF93DF93EC01688179818A81DB
:101450009B81611571058105910521F464E279EDA7
:101460008BE597E02DE133EF41E050E00E94D40A94
:1014700049015A019B01AC01A7EAB1E40E94F30AB9
:101480006B017C01ACEEB4EFA50194010E94010B4D
:10149000C60ED71EE81EF91EF7FE06C081E0C81A68
:1014A000D108E10880E8F80AC882D982EA82FB8282
:1014B000C701B6019F77DF91CF91FF90EF90DF904A
:1014C000CF90BF90AF909F908F9008958F929F92F2
:1014D000AF92BF92CF92DF92EF92FF9260910001A4
:1014E00070910101809102019091030161157105D4
:1014F0008105910521F464E279ED8BE597E02DE11A
:1015000033EF41E050E00E94D40A49015A019B01A7
:10151000AC01A7EAB1E40E94F30A6B017C01ACEED6
:10152000B4EFA50194010E94010BC60ED71EE81E60
:10153000F91EF7FE06C081E0C81AD108E10880E86C
:10154000F80AC0920001D0920101E0920201F092EB
:101550000301C701B6019F77FF90EF90DF90CF9016
:10156000BF90AF909F908F9008956093000170930B
:10157000010180930201909303010895F999FECF30
:1015800092BD81BDF89A992780B50895262FF999C3
:10159000FECF1FBA92BD81BD20BD0FB6F894FA9A56
:1015A000F99A0FBE01960895052E97FB1EF400943C
:1015B0000E94EB0A57FD07D00E94060B07FC03D0E0
:1015C0004EF40C94EB0A50954095309521953F4F81
:1015D0004F4F5F4F089590958095709561957F4F1F
:1015E0008F4F9F4F08950E94280BA59F900DB49F89
:1015F000900DA49F800D911D11240895B7FF0C94A8
:10160000F30A0E94F30A821B930B0895A1E21A2E9B
:10161000AA1BBB1BFD010DC0AA1FBB1FEE1FFF1F96
:10162000A217B307E407F50720F0A21BB30BE40BE6
:10163000F50B661F771F881F991F1A9469F760952D
:101640007095809590959B01AC01BD01CF010895E7
:10165000A29FB001B39FC001A39F700D811D1124F3
:10166000911DB29F700D811D1124911D089597FB4E
:10167000072E16F4009407D077FD09D00E944B0B7B
:1016800007FC05D03EF4909581959F4F0895709585
:1016900061957F4F0895AA1BBB1B51E107C0AA1F8C
:1016A000BB1FA617B70710F0A61BB70B881F991F03
:1016B0005A95A9F780959095BC01CD010895EE0F3C
:1016C000FF1F0590F491E02D0994F894FFCF0100DD
:1016D0000000000000005601B600E300A301140161
:1016E000F20006010000000088035B03C10431031F
:1016F00054034103320300000000B904B600C104E2
:10170000C0040D0A00424F55544F4E2031006C6109
:101710006E63657220656E20636F7572004554417B
:10172000542031006761676E6572202121004741B6
:10173000474E455220210070657264752E2E2E0092
:107E0000112484B714BE81FFF0D085E080938100F7
:107E100082E08093C00088E18093C10086E0809377
:107E2000C20080E18093C4008EE0C9D0259A86E02C
:107E300020E33CEF91E0309385002093840096BBD3
:107E4000B09BFECF1D9AA8958150A9F7CC24DD24C4
:107E500088248394B5E0AB2EA1E19A2EF3E0BF2EE7
:107E6000A2D0813461F49FD0082FAFD0023811F036
:107E7000013811F484E001C083E08DD089C08234E0
:107E800011F484E103C0853419F485E0A6D080C0E4
:107E9000853579F488D0E82EFF2485D0082F10E0AE
:107EA000102F00270E291F29000F111F8ED06801E7
:107EB0006FC0863521F484E090D080E0DECF843638
:107EC00009F040C070D06FD0082F6DD080E0C81688
:107ED00080E7D80618F4F601B7BEE895C0E0D1E017
:107EE00062D089930C17E1F7F0E0CF16F0E7DF06D8
:107EF00018F0F601B7BEE89568D007B600FCFDCFD4
:107F0000A601A0E0B1E02C9130E011968C91119780
:107F100090E0982F8827822B932B1296FA010C0160
:107F200087BEE89511244E5F5F4FF1E0A038BF0790
:107F300051F7F601A7BEE89507B600FCFDCF97BE46
:107F4000E89526C08437B1F42ED02DD0F82E2BD052
:107F50003CD0F601EF2C8F010F5F1F4F84911BD097
:107F6000EA94F801C1F70894C11CD11CFA94CF0C13
:107F7000D11C0EC0853739F428D08EE10CD085E9AC
:107F80000AD08FE07ACF813511F488E018D01DD067
:107F900080E101D065CF982F8091C00085FFFCCF94
:107FA0009093C60008958091C00087FFFCCF809118
:107FB000C00084FD01C0A8958091C6000895E0E648
:107FC000F0E098E1908380830895EDDF803219F02E
:107FD00088E0F5DFFFCF84E1DECF1F93182FE3DFCA
:107FE0001150E9F7F2DF1F91089580E0E8DFEE27F6
:047FF000FF270994CA
:027FFE00040479
:00000001FF
