:020000040000FA
:100000000C9462000C948A000C948A000C948A0070
:100010000C948A000C948A000C948A000C948A0038
:100020000C948A000C948A000C948A000C948A0028
:100030000C948A000C948A000C948A000C948A0018
:100040000C945A060C948A000C9428060C94020610
:100050000C948A000C948A000C948A000C948A00F8
:100060000C94A4060C948A000000000024002700D1
:100070002A0000000000250028002B0000000000DE
:1000800023002600290004040404040404040202DA
:100090000202020203030303030301020408102007
:1000A0004080010204081020010204081020000012
:1000B0000008000201000003040700000000000027
:1000C0000000C30711241FBECFEFD8E0DEBFCDBFB5
:1000D00011E0A0E0B1E0E8E3F7E102C005900D9285
:1000E000A437B107D9F722E0A4E7B1E001C01D921F
:1000F000A73FB207E1F710E0C2E6D0E004C02197C5
:10010000FE010E94940BC136D107C9F70E940B086B
:100110000C949A0B0C94000008950895AF92BF922E
:10012000CF92DF92EF92FF920F931F93CF93DF93C3
:100130006C017B018B01040F151FEB015E01AE18F2
:10014000BF08C017D10759F06991D601ED91FC9114
:100150000190F081E02DC6010995892B79F7C50141
:10016000DF91CF911F910F91FF90EF90DF90CF9093
:10017000BF90AF900895FC01538D448D252F30E042
:10018000842F90E0821B930B541710F0CF960895A4
:1001900001970895FC01918D828D981761F0A28DD1
:1001A000AE0FBF2FB11D5D968C91928D9F5F9F7397
:1001B000928F90E008958FEF9FEF0895FC01918D4D
:1001C000828D981731F0828DE80FF11D858D90E0BA
:1001D00008958FEF9FEF0895FC01918D228D892F57
:1001E00090E0805C9F4F821B91098F73992708953F
:1001F00082E492E00E94EC0021E0892B09F420E0E7
:10020000822F089580E090E0892B29F00E94F80069
:1002100081110C9400000895FC01A48DA80FB92F42
:10022000B11DA35ABF4F2C91848D90E001968F731E
:100230009927848FA689B7892C93A089B1898C913D
:10024000837080648C93938D848D981306C002888C
:10025000F389E02D80818F7D80830895EF92FF9256
:100260000F931F93CF93DF93EC0181E0888F9B8DD9
:100270008C8D98131AC0E889F989808185FF15C093
:100280009FB7F894EE89FF896083E889F9898081B6
:100290008370806480839FBF81E090E0DF91CF9185
:1002A0001F910F91FF90EF900895F62E0B8D10E0A7
:1002B0000F5F1F4F0F731127E02E8C8D8E110CC016
:1002C0000FB607FCFACFE889F989808185FFF5CF61
:1002D000CE010E940C01F1CFEB8DEC0FFD2FF11D33
:1002E000E35AFF4FF0829FB7F8940B8FEA89FB899E
:1002F00080818062CFCFCF93DF93EC01888D8823FC
:10030000B9F0AA89BB89E889F9898C9185FD03C078
:10031000808186FD0DC00FB607FCF7CF8C9185FF5D
:10032000F2CF808185FFEDCFCE010E940C01E9CF95
:10033000DF91CF910895833081F028F4813099F0D6
:100340008230A9F008958730A9F08830C9F0843050
:10035000B1F4809180008F7D03C0809180008F7701
:1003600080938000089584B58F7784BD089584B507
:100370008F7DFBCF8091B0008F778093B000089580
:100380008091B0008F7DF9CFCF93DF93282F30E09D
:10039000F901E255FF4F8491F901E656FF4FD491E0
:1003A000F901EA57FF4FC491CC23A1F081110E94BB
:1003B0009B01EC2FF0E0EE0FFF1FE458FF4FA591DB
:1003C000B491EC91ED2381E090E009F480E0DF91BD
:1003D000CF91089580E090E0FACF1F93CF93DF9301
:1003E000282F30E0F901E255FF4F8491F901E656DC
:1003F000FF4FD491F901EA57FF4FC491CC23A9F0E4
:10040000162F81110E949B01EC2FF0E0EE0FFF1FD1
:10041000EE58FF4FA591B4918FB7F894EC9111115C
:1004200008C0D095DE23DC938FBFDF91CF911F9161
:100430000895DE2BF8CFCF93DF9390E0FC01E656D2
:10044000FF4F24918A579F4FFC0184918823D1F05C
:1004500090E0880F991FFC01E859FF4FA591B491D6
:10046000FC01EE58FF4FC591D49161110EC09FB7AA
:10047000F8948C91E22FE0958E238C932881E223CF
:10048000E8839FBFDF91CF9108958FB7F894EC91E7
:10049000E22BEC938FBFF6CF3FB7F89480912B02FD
:1004A00090912C02A0912D02B0912E0226B5A89B0E
:1004B00005C02F3F19F00196A11DB11D3FBFBA2FF6
:1004C000A92F982F8827BC01CD01620F711D811DB6
:1004D000911D42E0660F771F881F991F4A95D1F73B
:1004E00008958F929F92AF92BF92CF92DF92EF9238
:1004F000FF924B015C010E944C026B017C010E9447
:100500004C026C197D098E099F09683E7340810574
:100510009105A8F321E0821A9108A108B10888EE9C
:10052000C80E83E0D81EE11CF11C81149104A104C3
:10053000B10429F7FF90EF90DF90CF90BF90AF907C
:100540009F908F9008952091DC01260F3327331F51
:1005500021323105ECF420910002FC0190E080E0B2
:10056000243069F082E00895A091DC012191AC0172
:1005700044545E4FA40FB52FB11D2C9301968617DE
:1005800098F38091DC01680F6093DC0180E00895AE
:1005900081E008951092000281E08093020210929F
:1005A000010261E082E10E94ED0161E083E10E94CD
:1005B000ED01E9EBF0E080818E7F808380818D7F8B
:1005C000808388E48093B80085E48093BC0008951C
:1005D000CF93DF9391E09093BB018823B9F0C09152
:1005E000B800D091BA008091BC008A7B8093BC0097
:1005F00060E082E10E94ED0160E083E10E94ED0194
:100600000E94CA02D093BA00C093B800DF91CF9184
:1006100008950895E091360280913502E81730F48C
:10062000F0E0EA56FE4F808190E008958FEF9FEF53
:10063000089590913602809135022FEF3FEF981781
:1006400048F4E92FF0E0EA56FE4F208130E09F5F4A
:1006500090933602C9010895809135029091360237
:10066000891B990B0895CF92DF92EF92FF920F931F
:100670001F93CF93DF937C01CB018A0120919501D9
:10068000222389F0EB016B01C40ED51ECC15DD05CC
:1006900069F06991D701ED91FC910190F081E02D15
:1006A000C7010995F3CF642F0E94A302C801DF910F
:1006B000CF911F910F91FF90EF90DF90CF90089511
:1006C000CF93DF931F92CDB7DEB769832091950159
:1006D0002223F9F020913302203258F021E030E05B
:1006E000FC013383228390E080E00F90DF91CF9173
:1006F000089580913402E82FF0E0EB58FE4F998185
:1007000090838F5F809334028093330281E090E086
:10071000ECCF61E0CE0101960E94A302F7CFCF9209
:10072000DF92EF92FF920F931F93CF93DF93D62F19
:10073000672FFC01C48181E080939501C09374010F
:1007400010923402109233028FED92E00E94600307
:100750006D2F8FED92E00E946003D0913302D13271
:1007600008F092C00E944C026B017C018091000253
:10077000811165C082E08093000281E080930202D3
:100780008FEF8093FF0110922402D0932302A5E7FC
:10079000B1E0E3E0F2E080E0D81385C010922502DA
:1007A00080912502CC0FC82BC093250280910102B5
:1007B000813009F07CC0109201020E944C026B0152
:1007C0007C01809125028093BB008091B7019091BC
:1007D000B801A091B901B091BA01892B8A2B8B2B5A
:1007E00099F00E944C020091B7011091B80120913C
:1007F000B9013091BA016C197D098E099F0906175C
:10080000170728073907E0F18091BC0083FDD9CF95
:1008100085EC8093BC000E944C026B017C018091AE
:100820000002823009F445C08091FF018F3F61F1E1
:100830008091FF01803241F18091FF0125C08091BC
:10084000B7019091B801A091B901B091BA01892B7B
:100850008A2B8B2B09F48ACF0E944C020091B7019E
:100860001091B8012091B9013091BA016C197D093C
:100870008E099F09061717072807390708F076CF52
:100880008091B6010E94E802109234021092330265
:1008900010929501DF91CF911F910F91FF90EF90F2
:1008A000DF90CF9008959D9191938F5F75CF85EEE6
:1008B000B0CF8091B7019091B801A091B901B091EA
:1008C000BA01892B8A2B8B2B09F4A9CF0E944C02E9
:1008D0000091B7011091B8012091B9013091BA018E
:1008E0006C197D098E099F09061717072807390714
:1008F00008F095CFC5CF60E870E08BEE92E00C94E5
:100900008F0361E070E08BEE92E00E948F038BE337
:100910009FE10197F1F78091F40281110C947B041F
:10092000089570E070640E948F0381E090E0089564
:10093000089590E080E00895EF92FF920F931F9347
:10094000CF93DF937C01D0E0C0E000E110E0CE1552
:10095000DF05A4F564E670E080E090E00E9471029B
:1009600061E088E00E94ED0160E08BE00E94ED0113
:1009700061E089E00E94ED0160E088E00E94ED0105
:1009800061E08AE00E94ED0160E089E00E94ED01F3
:1009900061E08BE00E94ED0160E08AE00E94ED01E1
:1009A00080914002909141020196B8010E946C0B27
:1009B00090934102809340022196C9CFDF91CF915D
:1009C0001F910F91FF90EF900895FF920F931F9347
:1009D000CF93DF93EC018B01FB01F0800E94F30ABF
:1009E000F81621F06F2DCE010E94FB0AF801F1806C
:1009F0002196CE010E94F30AF81621F06F2DCE0148
:100A00000E94FB0AC801DF91CF911F910F91FF90C7
:100A100008950F931F93CF93DF938C01EB010E94F6
:100A2000F30A8883C80101960E94F30A8983CE01E4
:100A3000DF91CF911F910F910895FB01019000204C
:100A4000E9F73197AF01461B570BDC01ED91FC91A3
:100A50000280F381E02D0994CF93DF93BC0182E4FF
:100A600092E00E941D05EC0164E371E082E492E0F3
:100A70000E941D058C0F9D1FDF91CF9108958F92CD
:100A80009F92AF92BF92CF92DF92EF92FF920F931D
:100A90001F93CF93DF93CDB7DEB7A1970FB6F8942E
:100AA000DEBF0FBECDBF6C01990FEE08FF08F7FE49
:100AB0004BC06DE282E492E00E942E018C0122275D
:100AC0003327A9012C193D094E095F0919A2CE014E
:100AD00081967C019AE0892E912CA12CB12CCA011F
:100AE000B901A50194010E943B0B605DF70162937F
:100AF0007F01211531054105510589F790E080E01E
:100B0000309729F0BF0182E492E00E941D05080F92
:100B1000191F64E371E082E492E00E941D05800FDA
:100B2000911FA1960FB6F894DEBF0FBECDBFDF9127
:100B3000CF911F910F91FF90EF90DF90CF90BF90DA
:100B4000AF909F908F900895A701960119A28E01F2
:100B50000F5D1F4F8AE0C82ED12CE12CF12CCA0169
:100B6000B901A70196010E943B0B605DF8016293F9
:100B70008F01211531054105510589F7309739F06D
:100B8000BF0182E492E00E941D058C01C2CF10E0FB
:100B900000E0BFCF85ED8093BC008091B7019091BC
:100BA000B801A091B901B091BA010796A11DB11D7C
:100BB00023E0B695A795979587952A95D1F720912B
:100BC000BC0024FD03C01092000208954091B701BB
:100BD0005091B8016091B9017091BA01452B462B33
:100BE000472B69F30097A105B10541F025E32A954C
:100BF000F1F700000197A109B109E1CF8091B60199
:100C00000C94E8021F920F920FB60F9211242F93AB
:100C10003F934F935F936F937F938F939F93AF9384
:100C2000BF93EF93FF9382E492E00E940C01FF9147
:100C3000EF91BF91AF919F918F917F916F915F9154
:100C40004F913F912F910F900FBE0F901F901895CD
:100C50001F920F920FB60F9211242F938F939F9391
:100C6000EF93FF93E0915202F09153028081E09163
:100C70005802F091590282FD1BC0908180915B0265
:100C80008F5F8F7320915C02821741F0E0915B02CD
:100C9000F0E0EE5BFD4F958F80935B02FF91EF914B
:100CA0009F918F912F910F900FBE0F901F901895CD
:100CB0008081F4CF1F920F920FB60F9211242F93C1
:100CC0003F938F939F93AF93BF938091270290910F
:100CD0002802A0912902B0912A023091260223E035
:100CE000230F2D3758F50196A11DB11D2093260223
:100CF0008093270290932802A0932902B0932A029E
:100D000080912B0290912C02A0912D02B0912E0285
:100D10000196A11DB11D80932B0290932C02A093EC
:100D20002D02B0932E02BF91AF919F918F913F9171
:100D30002F910F900FBE0F901F90189526E8230F4C
:100D40000296A11DB11DD2CF1F920F920FB60F9226
:100D500011242F933F934F935F936F937F938F93C0
:100D60009F93AF93BF93EF93FF938091B900887FD8
:100D7000803609F44AC0F0F5883209F4A7C018F5A6
:100D8000803109F49BC0B8F4882309F4F9C0883095
:100D900009F494C0FF91EF91BF91AF919F918F9112
:100DA0007F916F915F914F913F912F910F900FBE67
:100DB0000F901F901895883109F488C0803251F740
:100DC0008093FF0114C0803409F49DC040F4803347
:100DD000B9F38833F9F68093FF0185ECB0C0803514
:100DE00009F485C0883509F496C0883499F60E94C4
:100DF000CA05D0CF883909F48CC038F5883729F076
:100E000050F4883611F0803729F683E08093000291
:100E10001092FE0157C0883809F47BC0803919F060
:100E2000803809F0B7CF8091FE01803208F071C0A0
:100E3000E091FE0181E08E0F8093FE018091BB0066
:100E4000F0E0E252FE4F80833DC0803B39F0E0F499
:100E5000803A09F479C0883A09F09CCF84E0809305
:100E600000021092DD011092DC01E0913102F0915C
:100E7000320209958091DC0181110FC081E08093DD
:100E8000DC011092BC0109C0803C09F4A6CF883C6B
:100E900009F4A3CF883B09F07DCFE091DD0181E02B
:100EA0008E0F8093DD01F0E0E454FE4F808180934B
:100EB000BB009091DD018091DC0129C08091250269
:100EC0008093BB0085EC8093BC0064CF909124029A
:100ED00080912302981758F5E091240281E08E0F4B
:100EE00080932402F0E0ED5FFD4F8081E9CFE09137
:100EF000240281E08E0F809324028091BB00F0E0F9
:100F0000ED5FFD4F8083909124028091230298171A
:100F1000C8F285E8D8CFE091240281E08E0F80935B
:100F200024028091BB00F0E0ED5FFD4F8083809153
:100F3000020281115CCF81E08093010284EA8093F8
:100F4000BC001092000226CF85EC8093BC0010926A
:100F500000028091FE01803230F4E091FE01F0E069
:100F6000E252FE4F10826091FE0170E0E0912F028C
:100F7000F09130028EED91E009951092FE010ACFBA
:100F80001092FF0134CFE2E4F2E01382128288EE85
:100F900093E0A0E0B0E084839583A683B78328E044
:100FA00031E03183208325EC30E03587248724EC41
:100FB00030E03787268720EC30E0318B208B21EC26
:100FC00030E0338B228B22EC30E0358B248B26EC07
:100FD00030E0378B268B118E128E138E148EEFED30
:100FE000F2E01382128284839583A683B7838AE119
:100FF00091E091838083EBEEF2E0138212828CE227
:1010000091E09183808311868EE3848380E18287DF
:1010100082E083870895CF93DF9300D0CDB7DEB70A
:10102000789484B5826084BD84B5816084BD85B5C3
:10103000826085BD85B5816085BD80916E008160CF
:1010400080936E0010928100809181008260809375
:101050008100809181008160809381008091800077
:101060008160809380008091B10084608093B100A2
:101070008091B00081608093B00080917A0084609C
:1010800080937A0080917A00826080937A008091C8
:101090007A00816080937A0080917A0080688093E2
:1010A0007A001092C10060E080E00E941B0261E0C3
:1010B00081E00E941B0261E082E00E941B0261E06D
:1010C00088E00E941B0261E089E00E941B0261E04F
:1010D0008AE00E941B0261E08BE00E941B02E0910B
:1010E0005202F091530282E08083E0914E02F0912F
:1010F0004F021082E0915002F09151028FEC8083F8
:1011000010925A02E0915602F091570286E08083D5
:10111000E0915402F0915502808180618083E091DA
:101120005402F0915502808188608083E0915402DE
:10113000F0915502808180688083E0915402F091A3
:10114000550280818F7D808367E372E088E49FE1B0
:101150000E9409058091370290913802823D9440A7
:10116000A1F082ED94E09A838983BE016F5F7F4F87
:1011700088E49FE10E94E5041A821982BE016F5F34
:101180007F4F80E49FE10E94E50460E472E080E428
:101190009FE10E94090580914002909141020E94C6
:1011A0003F051092360210923502109234021092CE
:1011B00033020E94CA028CE890E09093320280933E
:1011C00031028DE890E09093300280932F0280E10D
:1011D0008093F0028091F602823018F098E19093AB
:1011E000F0028093F3028BE39DE00197F1F76091A9
:1011F000F002606270E08BEE92E00E948F038BE45D
:1012000096E40197F1F76091F002606270E08BEE76
:1012100092E00E948F0383E592E00197F1F76091DD
:10122000F002606270E08BEE92E00E948F036091AA
:10123000F002606270E08BEE92E00E948F0384E027
:101240008093F1026CE070E08BEE92E00E948F03DD
:101250000E94810482E08093F20266E070E08BEEEF
:1012600092E00E948F0362E070E08BEE92E00E94B9
:101270008F038BE39FE10197F1F70E947B0420E24B
:1012800030E060E070E0CB0150E4660F771F881F0C
:10129000991F50937C0040917A00406440937A00FB
:1012A00040917A0046FDFCCF40917800E0917900B2
:1012B0004170642B2150310941F761157105810599
:1012C000910511F00E94EA0A00E110E080EA482E40
:1012D000512C612C712C90E0892E90E0992E22E007
:1012E000A22EB12C33243394F090400280E49FE18D
:1012F0000E94F30AF81629F06F2D80E49FE10E9406
:10130000FB0A8091400290914102B8010E946C0B4F
:10131000909341028093400220913E0230913F021F
:10132000232BB9F4009731F09801281B390BC90120
:101330000E949C0480E00E94C4017C01019709F096
:101340004BC087E391E00E942C05F0923F02E092AF
:101350003E02E0903E02F0903F0281E0E816F10488
:10136000D9F560E471E08BEE92E00E941D0580E506
:1013700091E00E942C0510923D0210923C020E94C6
:101380009B0AA30192010E94090BDC01CB0180564C
:101390009F4FAF4FBF4F90933B0280933A020E9402
:1013A0003F05C0903A02D0903B02C6010E949C04C7
:1013B000C601B8010E946C0B90933B0280933A02E5
:1013C000877F0297029720F4F0923D02E0923C0260
:1013D000B0923F02A0923E0280913E0290913F0265
:1013E0000297F1F58091390220913C0230913D0243
:1013F000232B09F441C0811126C03092390287E5C0
:1014000091E00E942C0561E081E00E94ED0161E025
:1014100082E00E94ED010E9481040E947B0461E64B
:1014200071E08BEE92E00E941D0560ED77E080E0B8
:1014300090E00E94710260E081E00E94ED0160E0B6
:1014400082E00E94ED0180E00E94C401019741F416
:1014500010923F0210923E02109239020E948104C3
:101460008114910409F440CF0E94F800882309F404
:101470003BCF0E94000038CF8111E5CF3092390276
:101480008AE691E00E942C050E9481040E947B0460
:101490006AE671E08BEE92E00E941D05D4CF8F9238
:1014A0009F92AF92BF92CF92DF92EF92FF92CF9333
:1014B000DF93EC01688179818A819B8161157105D7
:1014C0008105910521F464E279ED8BE597E02DE14A
:1014D00033EF41E050E00E94090B49015A019B01A2
:1014E000AC01A7EAB1E40E94280B6B017C01ACEED1
:1014F000B4EFA50194010E94360BC60ED71EE81E5C
:10150000F91EF7FE06C081E0C81AD108E10880E89C
:10151000F80AC882D982EA82FB82C701B6019F77A6
:10152000DF91CF91FF90EF90DF90CF90BF90AF9081
:101530009F908F9008958F929F92AF92BF92CF927B
:10154000DF92EF92FF926091000170910101809112
:10155000020190910301611571058105910521F446
:1015600064E279ED8BE597E02DE133EF41E050E067
:101570000E94090B49015A019B01AC01A7EAB1E4A1
:101580000E94280B6B017C01ACEEB4EFA501940125
:101590000E94360BC60ED71EE81EF91EF7FE06C0C7
:1015A00081E0C81AD108E10880E8F80AC092000179
:1015B000D0920101E0920201F0920301C701B6014D
:1015C0009F77FF90EF90DF90CF90BF90AF909F906C
:1015D0008F90089560930001709301018093020140
:1015E000909303010895F999FECF92BD81BDF89AB9
:1015F000992780B50895262FF999FECF1FBA92BD7D
:1016000081BD20BD0FB6F894FA9AF99A0FBE0196E3
:101610000895052E97FB1EF400940E94200B57FDA1
:1016200007D00E943B0B07FC03D04EF40C94200B18
:1016300050954095309521953F4F4F4F5F4F0895FE
:1016400090958095709561957F4F8F4F9F4F08952E
:101650000E945D0BA59F900DB49F900DA49F800DDF
:10166000911D11240895B7FF0C94280B0E94280B9C
:10167000821B930B0895A1E21A2EAA1BBB1BFD012E
:101680000DC0AA1FBB1FEE1FFF1FA217B307E40761
:10169000F50720F0A21BB30BE40BF50B661F771FB9
:1016A000881F991F1A9469F7609570958095909599
:1016B0009B01AC01BD01CF010895A29FB001B39F72
:1016C000C001A39F700D811D1124911DB29F700D4B
:1016D000811D1124911D089597FB072E16F4009487
:1016E00007D077FD09D00E94800B07FC05D03EF49F
:1016F000909581959F4F0895709561957F4F0895BE
:10170000AA1BBB1B51E107C0AA1FBB1FA617B70727
:1017100010F0A61BB70B881F991F5A95A9F7809543
:101720009095BC01CD010895EE0FFF1F0590F49137
:10173000E02D0994F894FFCF0100000000000000A4
:101740002E018E00BB007B01EC00CA00DE00000011
:10175000000060033303990409032C0319030A03EF
:101760000000000091048E00990498040D0A0042C4
:101770004F55544F4E2031006C616E636572206589
:101780006E20636F757273004554415420310067B9
:1017900061676E6572202121004741474E45522006
:0C17A000210070657264752E2E2E000072
:107E0000112484B714BE81FFF0D085E080938100F7
:107E100082E08093C00088E18093C10086E0809377
:107E2000C20080E18093C4008EE0C9D0259A86E02C
:107E300020E33CEF91E0309385002093840096BBD3
:107E4000B09BFECF1D9AA8958150A9F7CC24DD24C4
:107E500088248394B5E0AB2EA1E19A2EF3E0BF2EE7
:107E6000A2D0813461F49FD0082FAFD0023811F036
:107E7000013811F484E001C083E08DD089C08234E0
:107E800011F484E103C0853419F485E0A6D080C0E4
:107E9000853579F488D0E82EFF2485D0082F10E0AE
:107EA000102F00270E291F29000F111F8ED06801E7
:107EB0006FC0863521F484E090D080E0DECF843638
:107EC00009F040C070D06FD0082F6DD080E0C81688
:107ED00080E7D80618F4F601B7BEE895C0E0D1E017
:107EE00062D089930C17E1F7F0E0CF16F0E7DF06D8
:107EF00018F0F601B7BEE89568D007B600FCFDCFD4
:107F0000A601A0E0B1E02C9130E011968C91119780
:107F100090E0982F8827822B932B1296FA010C0160
:107F200087BEE89511244E5F5F4FF1E0A038BF0790
:107F300051F7F601A7BEE89507B600FCFDCF97BE46
:107F4000E89526C08437B1F42ED02DD0F82E2BD052
:107F50003CD0F601EF2C8F010F5F1F4F84911BD097
:107F6000EA94F801C1F70894C11CD11CFA94CF0C13
:107F7000D11C0EC0853739F428D08EE10CD085E9AC
:107F80000AD08FE07ACF813511F488E018D01DD067
:107F900080E101D065CF982F8091C00085FFFCCF94
:107FA0009093C60008958091C00087FFFCCF809118
:107FB000C00084FD01C0A8958091C6000895E0E648
:107FC000F0E098E1908380830895EDDF803219F02E
:107FD00088E0F5DFFFCF84E1DECF1F93182FE3DFCA
:107FE0001150E9F7F2DF1F91089580E0E8DFEE27F6
:047FF000FF270994CA
:027FFE00040479
:00000001FF
